{
  "contractName": "Deployer",
  "abi": [
    {
      "constant": false,
      "inputs": [],
      "name": "destroy",
      "outputs": [],
      "payable": false,
      "stateMutability": "nonpayable",
      "type": "function",
      "signature": "0x83197ef0"
    },
    {
      "constant": true,
      "inputs": [],
      "name": "owner",
      "outputs": [
        {
          "name": "",
          "type": "address"
        }
      ],
      "payable": false,
      "stateMutability": "view",
      "type": "function",
      "signature": "0x8da5cb5b"
    },
    {
      "constant": false,
      "inputs": [
        {
          "name": "newOwner",
          "type": "address"
        }
      ],
      "name": "transferOwnership",
      "outputs": [],
      "payable": false,
      "stateMutability": "nonpayable",
      "type": "function",
      "signature": "0xf2fde38b"
    },
    {
      "constant": false,
      "inputs": [
        {
          "name": "_recipient",
          "type": "address"
        }
      ],
      "name": "destroyAndSend",
      "outputs": [],
      "payable": false,
      "stateMutability": "nonpayable",
      "type": "function",
      "signature": "0xf5074f41"
    },
    {
      "payable": false,
      "stateMutability": "nonpayable",
      "type": "fallback"
    },
    {
      "anonymous": false,
      "inputs": [
        {
          "indexed": true,
          "name": "deployedAddress",
          "type": "address"
        },
        {
          "indexed": true,
          "name": "deployer",
          "type": "address"
        }
      ],
      "name": "NewParty",
      "type": "event",
      "signature": "0x57d380dbcddc47e0e592a9fd9ac9ab20c72572944143ef72b0e201536e0174f9"
    },
    {
      "anonymous": false,
      "inputs": [
        {
          "indexed": true,
          "name": "previousOwner",
          "type": "address"
        },
        {
          "indexed": true,
          "name": "newOwner",
          "type": "address"
        }
      ],
      "name": "OwnershipTransferred",
      "type": "event",
      "signature": "0x8be0079c531659141344cd1fd0a4f28419497f9722a3daafe3b4186f6b6457e0"
    },
    {
      "constant": false,
      "inputs": [
        {
          "name": "_name",
          "type": "string"
        },
        {
          "name": "_deposit",
          "type": "uint256"
        },
        {
          "name": "_limitOfParticipants",
          "type": "uint256"
        },
        {
          "name": "_coolingPeriod",
          "type": "uint256"
        },
        {
          "name": "_encryption",
          "type": "string"
        }
      ],
      "name": "deploy",
      "outputs": [],
      "payable": false,
      "stateMutability": "nonpayable",
      "type": "function",
      "signature": "0x85e8b1da"
    }
  ],
  "bytecode": "0x6080604052336000806101000a81548173ffffffffffffffffffffffffffffffffffffffff021916908373ffffffffffffffffffffffffffffffffffffffff1602179055506136f9806100536000396000f30060806040526004361061006d576000357c0100000000000000000000000000000000000000000000000000000000900463ffffffff16806383197ef0146100e857806385e8b1da146100ff5780638da5cb5b14610170578063f2fde38b146101c7578063f5074f411461020a575b34801561007957600080fd5b506040517f08c379a00000000000000000000000000000000000000000000000000000000081526004018080602001828103825260148152602001807f6e6f2066616c6c6261636b2066756e6374696f6e00000000000000000000000081525060200191505060405180910390fd5b3480156100f457600080fd5b506100fd61024d565b005b34801561010b57600080fd5b5061016e6004803603810190808035906020019082018035906020019190919293919293908035906020019092919080359060200190929190803590602001909291908035906020019082018035906020019190919293919293905050506102e2565b005b34801561017c57600080fd5b50610185610407565b604051808273ffffffffffffffffffffffffffffffffffffffff1673ffffffffffffffffffffffffffffffffffffffff16815260200191505060405180910390f35b3480156101d357600080fd5b50610208600480360381019080803573ffffffffffffffffffffffffffffffffffffffff16906020019092919050505061042c565b005b34801561021657600080fd5b5061024b600480360381019080803573ffffffffffffffffffffffffffffffffffffffff169060200190929190505050610581565b005b6000809054906101000a900473ffffffffffffffffffffffffffffffffffffffff1673ffffffffffffffffffffffffffffffffffffffff163373ffffffffffffffffffffffffffffffffffffffff161415156102a857600080fd5b6000809054906101000a900473ffffffffffffffffffffffffffffffffffffffff1673ffffffffffffffffffffffffffffffffffffffff16ff5b60008033915088888888888888886102f86105f5565b8080602001888152602001878152602001868152602001806020018473ffffffffffffffffffffffffffffffffffffffff1673ffffffffffffffffffffffffffffffffffffffff16815260200183810383528b8b828181526020019250808284378201915050838103825286868281815260200192508082843782019150509a5050505050505050505050604051809103906000f08015801561039f573d6000803e3d6000fd5b5090508173ffffffffffffffffffffffffffffffffffffffff168173ffffffffffffffffffffffffffffffffffffffff167f57d380dbcddc47e0e592a9fd9ac9ab20c72572944143ef72b0e201536e0174f960405160405180910390a3505050505050505050565b6000809054906101000a900473ffffffffffffffffffffffffffffffffffffffff1681565b6000809054906101000a900473ffffffffffffffffffffffffffffffffffffffff1673ffffffffffffffffffffffffffffffffffffffff163373ffffffffffffffffffffffffffffffffffffffff1614151561048757600080fd5b600073ffffffffffffffffffffffffffffffffffffffff168173ffffffffffffffffffffffffffffffffffffffff16141515156104c357600080fd5b8073ffffffffffffffffffffffffffffffffffffffff166000809054906101000a900473ffffffffffffffffffffffffffffffffffffffff1673ffffffffffffffffffffffffffffffffffffffff167f8be0079c531659141344cd1fd0a4f28419497f9722a3daafe3b4186f6b6457e060405160405180910390a3806000806101000a81548173ffffffffffffffffffffffffffffffffffffffff021916908373ffffffffffffffffffffffffffffffffffffffff16021790555050565b6000809054906101000a900473ffffffffffffffffffffffffffffffffffffffff1673ffffffffffffffffffffffffffffffffffffffff163373ffffffffffffffffffffffffffffffffffffffff161415156105dc57600080fd5b8073ffffffffffffffffffffffffffffffffffffffff16ff5b6040516130c88061060683390190560060806040523480156200001157600080fd5b50604051620030c8380380620030c8833981018060405281019080805182019291906020018051906020019092919080519060200190929190805190602001909291908051820192919060200180519060200190929190505050336000806101000a81548173ffffffffffffffffffffffffffffffffffffffff021916908373ffffffffffffffffffffffffffffffffffffffff160217905550600073ffffffffffffffffffffffffffffffffffffffff168173ffffffffffffffffffffffffffffffffffffffff161415156200012357806000806101000a81548173ffffffffffffffffffffffffffffffffffffffff021916908373ffffffffffffffffffffffffffffffffffffffff1602179055505b600086511415156200014e578560029080519060200190620001479291906200023a565b506200019d565b6040805190810160405280600481526020017f5465737400000000000000000000000000000000000000000000000000000000815250600290805190602001906200019b9291906200023a565b505b600085141515620001b55784600381905550620001c4565b66470de4df8200006003819055505b600084141515620001dc5783600481905550620001e5565b60146004819055505b600083141515620001fd578260098190555062000208565b62093a806009819055505b600082511415156200022e5781600b90805190602001906200022c9291906200023a565b505b505050505050620002e9565b828054600181600116156101000203166002900490600052602060002090601f016020900481019282601f106200027d57805160ff1916838001178555620002ae565b82800160010185558215620002ae579182015b82811115620002ad57825182559160200191906001019062000290565b5b509050620002bd9190620002c1565b5090565b620002e691905b80821115620002e2576000816000905550600101620002c8565b5090565b90565b612dcf80620002f96000396000f3006080604052600436106101cd576000357c0100000000000000000000000000000000000000000000000000000000900463ffffffff1680630191dc92146101d257806305f203d9146101fd57806306fdde031461026357806309e69ede146102f357806312fa6feb146103f857806314bfd6d0146104275780631e3c93521461049457806324d7806c146104fa5780632de40ce31461055557806331ae450b146105805780633ccfd60b146105ec5780633d6a71e41461060357806352efea6e1461062e5780635353a2d8146106455780635d27bff31461068057806363bd1d4a146106c65780636b46c8c3146106f15780636d006ae81461071c5780636ded82f81461074757806383197ef0146107a2578063854bec87146107b95780638da5cb5b146107d05780639328beee14610827578063982495c7146108525780639989a5ae1461088d5780639a82a09a146108ba5780639b25cacb146108e9578063a07f3a5614610956578063a531d362146109b1578063ad7a672f14610a41578063b5e10e9a14610a6c578063c3c5a54714610a97578063d0e30db014610af2578063ea8a1af014610b1d578063f2c298be14610b34578063f2fde38b14610b62578063f5074f4114610ba5575b600080fd5b3480156101de57600080fd5b506101e7610be8565b6040518082815260200191505060405180910390f35b34801561020957600080fd5b5061026160048036038101908080359060200190820180359060200190808060200260200160405190810160405280939291908181526020018383602002808284378201915050505050509192919290505050610bf5565b005b34801561026f57600080fd5b50610278610e22565b6040518080602001828103825283818151815260200191508051906020019080838360005b838110156102b857808201518184015260208101905061029d565b50505050905090810190601f1680156102e55780820380516001836020036101000a031916815260200191505b509250505060405180910390f35b3480156102ff57600080fd5b50610334600480360381019080803573ffffffffffffffffffffffffffffffffffffffff169060200190929190505050610ec0565b60405180806020018573ffffffffffffffffffffffffffffffffffffffff1673ffffffffffffffffffffffffffffffffffffffff1681526020018415151515815260200183151515158152602001828103825286818151815260200191508051906020019080838360005b838110156103ba57808201518184015260208101905061039f565b50505050905090810190601f1680156103e75780820380516001836020036101000a031916815260200191505b509550505050505060405180910390f35b34801561040457600080fd5b5061040d610fc2565b604051808215151515815260200191505060405180910390f35b34801561043357600080fd5b5061045260048036038101908080359060200190929190505050610fd5565b604051808273ffffffffffffffffffffffffffffffffffffffff1673ffffffffffffffffffffffffffffffffffffffff16815260200191505060405180910390f35b3480156104a057600080fd5b506104f860048036038101908080359060200190820180359060200190808060200260200160405190810160405280939291908181526020018383602002808284378201915050505050509192919290505050611013565b005b34801561050657600080fd5b5061053b600480360381019080803573ffffffffffffffffffffffffffffffffffffffff169060200190929190505050611166565b604051808215151515815260200191505060405180910390f35b34801561056157600080fd5b5061056a611267565b6040518082815260200191505060405180910390f35b34801561058c57600080fd5b5061059561126d565b6040518080602001828103825283818151815260200191508051906020019060200280838360005b838110156105d85780820151818401526020810190506105bd565b505050509050019250505060405180910390f35b3480156105f857600080fd5b506106016112fb565b005b34801561060f57600080fd5b5061061861174d565b6040518082815260200191505060405180910390f35b34801561063a57600080fd5b50610643611753565b005b34801561065157600080fd5b5061067e6004803603810190808035906020019082018035906020019190919293919293905050506119b2565b005b6106c4600480360381019080803590602001908201803590602001919091929391929390803590602001908201803590602001919091929391929390505050611a9d565b005b3480156106d257600080fd5b506106db611c0a565b6040518082815260200191505060405180910390f35b3480156106fd57600080fd5b50610706611c3a565b6040518082815260200191505060405180910390f35b34801561072857600080fd5b50610731611c40565b6040518082815260200191505060405180910390f35b34801561075357600080fd5b50610788600480360381019080803573ffffffffffffffffffffffffffffffffffffffff169060200190929190505050611c46565b604051808215151515815260200191505060405180910390f35b3480156107ae57600080fd5b506107b7611cb0565b005b3480156107c557600080fd5b506107ce611d45565b005b3480156107dc57600080fd5b506107e5611e90565b604051808273ffffffffffffffffffffffffffffffffffffffff1673ffffffffffffffffffffffffffffffffffffffff16815260200191505060405180910390f35b34801561083357600080fd5b5061083c611eb5565b6040518082815260200191505060405180910390f35b34801561085e57600080fd5b5061088b600480360381019080803590602001908201803590602001919091929391929390505050611ebb565b005b34801561089957600080fd5b506108b8600480360381019080803590602001909291905050506121db565b005b3480156108c657600080fd5b506108cf6122c5565b604051808215151515815260200191505060405180910390f35b3480156108f557600080fd5b50610914600480360381019080803590602001909291905050506122d8565b604051808273ffffffffffffffffffffffffffffffffffffffff1673ffffffffffffffffffffffffffffffffffffffff16815260200191505060405180910390f35b34801561096257600080fd5b50610997600480360381019080803573ffffffffffffffffffffffffffffffffffffffff16906020019092919050505061230b565b604051808215151515815260200191505060405180910390f35b3480156109bd57600080fd5b506109c6612375565b6040518080602001828103825283818151815260200191508051906020019080838360005b83811015610a065780820151818401526020810190506109eb565b50505050905090810190601f168015610a335780820380516001836020036101000a031916815260200191505b509250505060405180910390f35b348015610a4d57600080fd5b50610a56612413565b6040518082815260200191505060405180910390f35b348015610a7857600080fd5b50610a81612432565b6040518082815260200191505060405180910390f35b348015610aa357600080fd5b50610ad8600480360381019080803573ffffffffffffffffffffffffffffffffffffffff169060200190929190505050612438565b604051808215151515815260200191505060405180910390f35b348015610afe57600080fd5b50610b076124d3565b6040518082815260200191505060405180910390f35b348015610b2957600080fd5b50610b326124d9565b005b610b6060048036038101908080359060200190820180359060200191909192939192939050505061262d565b005b348015610b6e57600080fd5b50610ba3600480360381019080803573ffffffffffffffffffffffffffffffffffffffff16906020019092919050505061278a565b005b348015610bb157600080fd5b50610be6600480360381019080803573ffffffffffffffffffffffffffffffffffffffff1690602001909291905050506128df565b005b6000600180549050905090565b6000806000809054906101000a900473ffffffffffffffffffffffffffffffffffffffff1673ffffffffffffffffffffffffffffffffffffffff163373ffffffffffffffffffffffffffffffffffffffff16141515610c5357600080fd5b600091505b8251821015610e1d57600090505b600180549050811015610e10578282815181101515610c8157fe5b9060200190602002015173ffffffffffffffffffffffffffffffffffffffff16600182815481101515610cb057fe5b9060005260206000200160009054906101000a900473ffffffffffffffffffffffffffffffffffffffff1673ffffffffffffffffffffffffffffffffffffffff161415610e0357600180808054905003815481101515610d0c57fe5b9060005260206000200160009054906101000a900473ffffffffffffffffffffffffffffffffffffffff16600182815481101515610d4657fe5b9060005260206000200160006101000a81548173ffffffffffffffffffffffffffffffffffffffff021916908373ffffffffffffffffffffffffffffffffffffffff1602179055506001805480919060019003610da39190612c52565b508282815181101515610db257fe5b9060200190602002015173ffffffffffffffffffffffffffffffffffffffff167f631ff1c4e1a02c54b480a34b810e03bcee61fe38efcb243930a7f820914923e260405160405180910390a2610e10565b8080600101915050610c66565b8180600101925050610c58565b505050565b60028054600181600116156101000203166002900480601f016020809104026020016040519081016040528092919081815260200182805460018160011615610100020316600290048015610eb85780601f10610e8d57610100808354040283529160200191610eb8565b820191906000526020600020905b815481529060010190602001808311610e9b57829003601f168201915b505050505081565b600c602052806000526040600020600091509050806000018054600181600116156101000203166002900480601f016020809104026020016040519081016040528092919081815260200182805460018160011615610100020316600290048015610f6c5780601f10610f4157610100808354040283529160200191610f6c565b820191906000526020600020905b815481529060010190602001808311610f4f57829003601f168201915b5050505050908060010160009054906101000a900473ffffffffffffffffffffffffffffffffffffffff16908060010160149054906101000a900460ff16908060010160159054906101000a900460ff16905084565b600760009054906101000a900460ff1681565b600181815481101515610fe457fe5b906000526020600020016000915054906101000a900473ffffffffffffffffffffffffffffffffffffffff1681565b60008060009054906101000a900473ffffffffffffffffffffffffffffffffffffffff1673ffffffffffffffffffffffffffffffffffffffff163373ffffffffffffffffffffffffffffffffffffffff1614151561107057600080fd5b600090505b8151811015611162576001828281518110151561108e57fe5b9060200190602002015190806001815401808255809150509060018203906000526020600020016000909192909190916101000a81548173ffffffffffffffffffffffffffffffffffffffff021916908373ffffffffffffffffffffffffffffffffffffffff16021790555050818181518110151561110957fe5b9060200190602002015173ffffffffffffffffffffffffffffffffffffffff167f1c4e23de8d72c94b22992bd4d7b6786b215ba876af214ff63e6a0ca38fc97af460405160405180910390a28080600101915050611075565b5050565b6000806000809054906101000a900473ffffffffffffffffffffffffffffffffffffffff1673ffffffffffffffffffffffffffffffffffffffff168373ffffffffffffffffffffffffffffffffffffffff1614156111c75760019150611261565b600090505b60018054905081101561125c578273ffffffffffffffffffffffffffffffffffffffff166001828154811015156111ff57fe5b9060005260206000200160009054906101000a900473ffffffffffffffffffffffffffffffffffffffff1673ffffffffffffffffffffffffffffffffffffffff16141561124f5760019150611261565b80806001019150506111cc565b600091505b50919050565b60055481565b606060018054806020026020016040519081016040528092919081815260200182805480156112f157602002820191906000526020600020905b8160009054906101000a900473ffffffffffffffffffffffffffffffffffffffff1673ffffffffffffffffffffffffffffffffffffffff16815260200190600101908083116112a7575b5050505050905090565b6000600760009054906101000a900460ff161515611381576040517f08c379a000000000000000000000000000000000000000000000000000000000815260040180806020018281038252600d8152602001807f6e6f742079657420656e6465640000000000000000000000000000000000000081525060200191505060405180910390fd5b6000600a541115156113fb576040517f08c379a000000000000000000000000000000000000000000000000000000000815260040180806020018281038252600b8152602001807f7061796f7574206973203000000000000000000000000000000000000000000081525060200191505060405180910390fd5b600c60003373ffffffffffffffffffffffffffffffffffffffff1673ffffffffffffffffffffffffffffffffffffffff16815260200190815260200160002090503373ffffffffffffffffffffffffffffffffffffffff168160010160009054906101000a900473ffffffffffffffffffffffffffffffffffffffff1673ffffffffffffffffffffffffffffffffffffffff16141515611503576040517f08c379a00000000000000000000000000000000000000000000000000000000081526004018080602001828103825260108152602001807f666f7262696464656e206163636573730000000000000000000000000000000081525060200191505060405180910390fd5b600760019054906101000a900460ff168061152c57508060010160149054906101000a900460ff165b15156115c6576040517f08c379a00000000000000000000000000000000000000000000000000000000081526004018080602001828103825260288152602001807f6576656e74207374696c6c20616374697665206f7220796f7520646964206e6f81526020017f7420617474656e6400000000000000000000000000000000000000000000000081525060400191505060405180910390fd5b600015158160010160159054906101000a900460ff161515141515611653576040517f08c379a00000000000000000000000000000000000000000000000000000000081526004018080602001828103825260118152602001807f616c72656164792077697468647261776e00000000000000000000000000000081525060200191505060405180910390fd5b60018160010160156101000a81548160ff0219169083151502179055508060010160009054906101000a900473ffffffffffffffffffffffffffffffffffffffff1673ffffffffffffffffffffffffffffffffffffffff166108fc600a549081150290604051600060405180830381858888f193505050501580156116dc573d6000803e3d6000fd5b507f5dba113b49cfa7c90315e8e604e6b506f7abcb909b01dcb19ec39005086e68fc33600a54604051808373ffffffffffffffffffffffffffffffffffffffff1673ffffffffffffffffffffffffffffffffffffffff1681526020018281526020019250505060405180910390a150565b60085481565b60008060009054906101000a900473ffffffffffffffffffffffffffffffffffffffff1673ffffffffffffffffffffffffffffffffffffffff163373ffffffffffffffffffffffffffffffffffffffff161415156117b057600080fd5b600760009054906101000a900460ff161515611834576040517f08c379a000000000000000000000000000000000000000000000000000000000815260040180806020018281038252600d8152602001807f6e6f742079657420656e6465640000000000000000000000000000000000000081525060200191505060405180910390fd5b60095460085401421115156118b1576040517f08c379a00000000000000000000000000000000000000000000000000000000081526004018080602001828103825260178152602001807f7374696c6c20696e20636f6f6c696e6720706572696f6400000000000000000081525060200191505060405180910390fd5b6118b9612413565b90506000809054906101000a900473ffffffffffffffffffffffffffffffffffffffff1673ffffffffffffffffffffffffffffffffffffffff166108fc829081150290604051600060405180830381858888f19350505050158015611922573d6000803e3d6000fd5b507f61355a34c3bc2e502a24eba7ad2fb0fd0d05c4f71de8cb041fbe39cd3649665e6000809054906101000a900473ffffffffffffffffffffffffffffffffffffffff1682604051808373ffffffffffffffffffffffffffffffffffffffff1673ffffffffffffffffffffffffffffffffffffffff1681526020018281526020019250505060405180910390a150565b6000809054906101000a900473ffffffffffffffffffffffffffffffffffffffff1673ffffffffffffffffffffffffffffffffffffffff163373ffffffffffffffffffffffffffffffffffffffff16141515611a0d57600080fd5b6000600554141515611a87576040517f08c379a000000000000000000000000000000000000000000000000000000000815260040180806020018281038252601e8152602001807f70656f706c65206861766520616c72656164792072656769737465726564000081525060200191505060405180910390fd5b818160029190611a98929190612c7e565b505050565b600760009054906101000a900460ff16151515611b22576040517f08c379a000000000000000000000000000000000000000000000000000000000815260040180806020018281038252600d8152602001807f616c726561647920656e6465640000000000000000000000000000000000000081525060200191505060405180910390fd5b611b5d84848080601f016020809104026020016040519081016040528093929190818152602001838380828437820191505050505050612953565b7f8d272c75acbe64f584f00b43ea2e4ac139abac8e8b8f118e5588e14bbb5c40313385858585604051808673ffffffffffffffffffffffffffffffffffffffff1673ffffffffffffffffffffffffffffffffffffffff1681526020018060200180602001838103835287878281815260200192508082843782019150508381038252858582818152602001925080828437820191505097505050505050505060405180910390a150505050565b6000806006541415611c1f5760009050611c37565b600654611c2a612413565b811515611c3357fe5b0490505b90565b600a5481565b60045481565b6000611c5182612438565b8015611ca95750600c60008373ffffffffffffffffffffffffffffffffffffffff1673ffffffffffffffffffffffffffffffffffffffff16815260200190815260200160002060010160159054906101000a900460ff165b9050919050565b6000809054906101000a900473ffffffffffffffffffffffffffffffffffffffff1673ffffffffffffffffffffffffffffffffffffffff163373ffffffffffffffffffffffffffffffffffffffff16141515611d0b57600080fd5b6000809054906101000a900473ffffffffffffffffffffffffffffffffffffffff1673ffffffffffffffffffffffffffffffffffffffff16ff5b6000809054906101000a900473ffffffffffffffffffffffffffffffffffffffff1673ffffffffffffffffffffffffffffffffffffffff163373ffffffffffffffffffffffffffffffffffffffff16141515611da057600080fd5b600760009054906101000a900460ff16151515611e25576040517f08c379a000000000000000000000000000000000000000000000000000000000815260040180806020018281038252600d8152602001807f616c726561647920656e6465640000000000000000000000000000000000000081525060200191505060405180910390fd5b611e2d611c0a565b600a819055506001600760006101000a81548160ff021916908315150217905550426008819055507fb7152de35affc741a6b2355d37e9caf51fe847cacfccd414be5e15996ff7e6c6600a546040518082815260200191505060405180910390a1565b6000809054906101000a900473ffffffffffffffffffffffffffffffffffffffff1681565b60095481565b600080611ec733611166565b1515611f3b576040517f08c379a000000000000000000000000000000000000000000000000000000000815260040180806020018281038252600d8152602001807f6d7573742062652061646d696e0000000000000000000000000000000000000081525060200191505060405180910390fd5b600760009054906101000a900460ff16151515611fc0576040517f08c379a000000000000000000000000000000000000000000000000000000000815260040180806020018281038252600d8152602001807f616c726561647920656e6465640000000000000000000000000000000000000081525060200191505060405180910390fd5b600091505b838390508210156121d5578383838181101515611fde57fe5b9050602002013573ffffffffffffffffffffffffffffffffffffffff16905061200681612438565b151561207a576040517f08c379a00000000000000000000000000000000000000000000000000000000081526004018080602001828103825260188152602001807f6e6f74207265676973746572656420746f20617474656e64000000000000000081525060200191505060405180910390fd5b6120838161230b565b1515156120f8576040517f08c379a000000000000000000000000000000000000000000000000000000000815260040180806020018281038252601a8152602001807f616c7265616479206d61726b656420617320617474656e64656400000000000081525060200191505060405180910390fd5b7f1c5e7a37dd4095194684d8f835d2c81b686d64d685032055a7cd02edc7c49ed881604051808273ffffffffffffffffffffffffffffffffffffffff1673ffffffffffffffffffffffffffffffffffffffff16815260200191505060405180910390a16001600c60008373ffffffffffffffffffffffffffffffffffffffff1673ffffffffffffffffffffffffffffffffffffffff16815260200190815260200160002060010160146101000a81548160ff0219169083151502179055506006600081548092919060010191905055508180600101925050611fc5565b50505050565b6000809054906101000a900473ffffffffffffffffffffffffffffffffffffffff1673ffffffffffffffffffffffffffffffffffffffff163373ffffffffffffffffffffffffffffffffffffffff1614151561223657600080fd5b600760009054906101000a900460ff161515156122bb576040517f08c379a000000000000000000000000000000000000000000000000000000000815260040180806020018281038252600d8152602001807f616c726561647920656e6465640000000000000000000000000000000000000081525060200191505060405180910390fd5b8060048190555050565b600760019054906101000a900460ff1681565b600d6020528060005260406000206000915054906101000a900473ffffffffffffffffffffffffffffffffffffffff1681565b600061231682612438565b801561236e5750600c60008373ffffffffffffffffffffffffffffffffffffffff1673ffffffffffffffffffffffffffffffffffffffff16815260200190815260200160002060010160149054906101000a900460ff165b9050919050565b600b8054600181600116156101000203166002900480601f01602080910402602001604051908101604052809291908181526020018280546001816001161561010002031660029004801561240b5780601f106123e05761010080835404028352916020019161240b565b820191906000526020600020905b8154815290600101906020018083116123ee57829003601f168201915b505050505081565b60003073ffffffffffffffffffffffffffffffffffffffff1631905090565b60065481565b60008073ffffffffffffffffffffffffffffffffffffffff16600c60008473ffffffffffffffffffffffffffffffffffffffff1673ffffffffffffffffffffffffffffffffffffffff16815260200190815260200160002060010160009054906101000a900473ffffffffffffffffffffffffffffffffffffffff1673ffffffffffffffffffffffffffffffffffffffff1614159050919050565b60035481565b6000809054906101000a900473ffffffffffffffffffffffffffffffffffffffff1673ffffffffffffffffffffffffffffffffffffffff163373ffffffffffffffffffffffffffffffffffffffff1614151561253457600080fd5b600760009054906101000a900460ff161515156125b9576040517f08c379a000000000000000000000000000000000000000000000000000000000815260040180806020018281038252600d8152602001807f616c726561647920656e6465640000000000000000000000000000000000000081525060200191505060405180910390fd5b600354600a819055506001600760016101000a81548160ff0219169083151502179055506001600760006101000a81548160ff021916908315150217905550426008819055507faac5ae2dfd439bb6c2f88b2d8af5b285cfee7584ad0d13ae7c00c1226c7c4c7b60405160405180910390a1565b600760009054906101000a900460ff161515156126b2576040517f08c379a000000000000000000000000000000000000000000000000000000000815260040180806020018281038252600d8152602001807f616c726561647920656e6465640000000000000000000000000000000000000081525060200191505060405180910390fd5b6126ed82828080601f016020809104026020016040519081016040528093929190818152602001838380828437820191505050505050612953565b7f8d272c75acbe64f584f00b43ea2e4ac139abac8e8b8f118e5588e14bbb5c4031338383604051808473ffffffffffffffffffffffffffffffffffffffff1673ffffffffffffffffffffffffffffffffffffffff1681526020018060200180602001838103835285858281815260200192508082843782019150508381038252600081526020016020019550505050505060405180910390a15050565b6000809054906101000a900473ffffffffffffffffffffffffffffffffffffffff1673ffffffffffffffffffffffffffffffffffffffff163373ffffffffffffffffffffffffffffffffffffffff161415156127e557600080fd5b600073ffffffffffffffffffffffffffffffffffffffff168173ffffffffffffffffffffffffffffffffffffffff161415151561282157600080fd5b8073ffffffffffffffffffffffffffffffffffffffff166000809054906101000a900473ffffffffffffffffffffffffffffffffffffffff1673ffffffffffffffffffffffffffffffffffffffff167f8be0079c531659141344cd1fd0a4f28419497f9722a3daafe3b4186f6b6457e060405160405180910390a3806000806101000a81548173ffffffffffffffffffffffffffffffffffffffff021916908373ffffffffffffffffffffffffffffffffffffffff16021790555050565b6000809054906101000a900473ffffffffffffffffffffffffffffffffffffffff1673ffffffffffffffffffffffffffffffffffffffff163373ffffffffffffffffffffffffffffffffffffffff1614151561293a57600080fd5b8073ffffffffffffffffffffffffffffffffffffffff16ff5b600354341415156129cc576040517f08c379a000000000000000000000000000000000000000000000000000000000815260040180806020018281038252601e8152602001807f6d7573742073656e64206578616374206465706f73697420616d6f756e74000081525060200191505060405180910390fd5b600454600554101515612a47576040517f08c379a00000000000000000000000000000000000000000000000000000000081526004018080602001828103825260198152602001807f7061727469636970616e74206c696d697420726561636865640000000000000081525060200191505060405180910390fd5b612a5033612438565b151515612ac5576040517f08c379a00000000000000000000000000000000000000000000000000000000081526004018080602001828103825260128152602001807f616c72656164792072656769737465726564000000000000000000000000000081525060200191505060405180910390fd5b60056000815480929190600101919050555033600d6000600554815260200190815260200160002060006101000a81548173ffffffffffffffffffffffffffffffffffffffff021916908373ffffffffffffffffffffffffffffffffffffffff1602179055506080604051908101604052808281526020013373ffffffffffffffffffffffffffffffffffffffff16815260200160001515815260200160001515815250600c60003373ffffffffffffffffffffffffffffffffffffffff1673ffffffffffffffffffffffffffffffffffffffff1681526020019081526020016000206000820151816000019080519060200190612bc4929190612cfe565b5060208201518160010160006101000a81548173ffffffffffffffffffffffffffffffffffffffff021916908373ffffffffffffffffffffffffffffffffffffffff16021790555060408201518160010160146101000a81548160ff02191690831515021790555060608201518160010160156101000a81548160ff02191690831515021790555090505050565b815481835581811115612c7957818360005260206000209182019101612c789190612d7e565b5b505050565b828054600181600116156101000203166002900490600052602060002090601f016020900481019282601f10612cbf57803560ff1916838001178555612ced565b82800160010185558215612ced579182015b82811115612cec578235825591602001919060010190612cd1565b5b509050612cfa9190612d7e565b5090565b828054600181600116156101000203166002900490600052602060002090601f016020900481019282601f10612d3f57805160ff1916838001178555612d6d565b82800160010185558215612d6d579182015b82811115612d6c578251825591602001919060010190612d51565b5b509050612d7a9190612d7e565b5090565b612da091905b80821115612d9c576000816000905550600101612d84565b5090565b905600a165627a7a72305820c575ab314c9f3bf389148011ecb90ce2d14acbeb9e52d3da60b345b7db6a9b4f0029a165627a7a723058204b5f92a523ddcf246891845a029c8f168b8e6e97e46f67a695f1d0f5da45c0280029",
  "source": "pragma solidity ^0.4.24;\n\nimport './zeppelin/lifecycle/Destructible.sol';\nimport './Conference.sol';\n\n/**\n * This is responsible for deploying a new Party.\n */\ncontract Deployer is Destructible {\n    /**\n     * Notify that a new party has been deployed.\n     */\n    event NewParty(\n        address indexed deployedAddress,\n        address indexed deployer\n    );\n\n    /**\n     * Deploy a new contract.\n     * @param _name The name of the event\n     * @param _deposit The amount each participant deposits. The default is set to 0.02 Ether. The amount cannot be changed once deployed.\n     * @param _limitOfParticipants The number of participant. The default is set to 20. The number can be changed by the owner of the event.\n     * @param _coolingPeriod The period participants should withdraw their deposit after the event ends. After the cooling period, the event owner can claim the remining deposits.\n     * @param _encryption A pubic key. The admin can use this public key to encrypt pariticipant username which is stored in event. The admin can later decrypt the name using his/her private key.\n     */\n    function deploy(\n        string _name,\n        uint256 _deposit,\n        uint _limitOfParticipants,\n        uint _coolingPeriod,\n        string _encryption\n    ) external {\n        address owner = msg.sender;\n\n        Conference c = new Conference(\n          _name,\n          _deposit,\n          _limitOfParticipants,\n          _coolingPeriod,\n          _encryption,\n          owner\n        );\n\n        emit NewParty(address(c), owner);\n    }\n\n    /**\n     * Don't allow arbitrary calls\n     */\n    function () public {\n        revert('no fallback function');\n    }\n}\n",
  "sourcePath": "/Users/ram/dev/clients/noblocknoparty/contracts/contracts/Deployer.sol",
  "compiler": {
    "name": "solc",
    "version": "0.4.24+commit.e67f0147.Emscripten.clang"
  },
  "schemaVersion": "3.0.0-beta.0",
  "updatedAt": "2018-09-20T23:21:45.954Z"
}