{
  "contractName": "GroupAdmin",
  "abi": [
    {
      "constant": true,
      "inputs": [
        {
          "name": "",
          "type": "uint256"
        }
      ],
      "name": "admins",
      "outputs": [
        {
          "name": "",
          "type": "address"
        }
      ],
      "payable": false,
      "stateMutability": "view",
      "type": "function"
    },
    {
      "constant": true,
      "inputs": [],
      "name": "owner",
      "outputs": [
        {
          "name": "",
          "type": "address"
        }
      ],
      "payable": false,
      "stateMutability": "view",
      "type": "function"
    },
    {
      "constant": false,
      "inputs": [
        {
          "name": "newOwner",
          "type": "address"
        }
      ],
      "name": "transferOwnership",
      "outputs": [],
      "payable": false,
      "stateMutability": "nonpayable",
      "type": "function"
    },
    {
      "anonymous": false,
      "inputs": [
        {
          "indexed": true,
          "name": "grantee",
          "type": "address"
        }
      ],
      "name": "AdminGranted",
      "type": "event"
    },
    {
      "anonymous": false,
      "inputs": [
        {
          "indexed": true,
          "name": "grantee",
          "type": "address"
        }
      ],
      "name": "AdminRevoked",
      "type": "event"
    },
    {
      "anonymous": false,
      "inputs": [
        {
          "indexed": true,
          "name": "previousOwner",
          "type": "address"
        },
        {
          "indexed": true,
          "name": "newOwner",
          "type": "address"
        }
      ],
      "name": "OwnershipTransferred",
      "type": "event"
    },
    {
      "constant": false,
      "inputs": [
        {
          "name": "newAdmins",
          "type": "address[]"
        }
      ],
      "name": "grant",
      "outputs": [],
      "payable": false,
      "stateMutability": "nonpayable",
      "type": "function"
    },
    {
      "constant": false,
      "inputs": [
        {
          "name": "oldAdmins",
          "type": "address[]"
        }
      ],
      "name": "revoke",
      "outputs": [],
      "payable": false,
      "stateMutability": "nonpayable",
      "type": "function"
    },
    {
      "constant": true,
      "inputs": [],
      "name": "getAdmins",
      "outputs": [
        {
          "name": "",
          "type": "address[]"
        }
      ],
      "payable": false,
      "stateMutability": "view",
      "type": "function"
    },
    {
      "constant": true,
      "inputs": [],
      "name": "numOfAdmins",
      "outputs": [
        {
          "name": "",
          "type": "uint256"
        }
      ],
      "payable": false,
      "stateMutability": "view",
      "type": "function"
    },
    {
      "constant": true,
      "inputs": [
        {
          "name": "admin",
          "type": "address"
        }
      ],
      "name": "isAdmin",
      "outputs": [
        {
          "name": "",
          "type": "bool"
        }
      ],
      "payable": false,
      "stateMutability": "view",
      "type": "function"
    }
  ],
  "bytecode": "0x6080604052336000806101000a81548173ffffffffffffffffffffffffffffffffffffffff021916908373ffffffffffffffffffffffffffffffffffffffff160217905550610aa9806100536000396000f30060806040526004361061008e576000357c0100000000000000000000000000000000000000000000000000000000900463ffffffff1680630191dc921461009357806305f203d9146100be57806314bfd6d0146101245780631e3c93521461019157806324d7806c146101f757806331ae450b146102525780638da5cb5b146102be578063f2fde38b14610315575b600080fd5b34801561009f57600080fd5b506100a8610358565b6040518082815260200191505060405180910390f35b3480156100ca57600080fd5b5061012260048036038101908080359060200190820180359060200190808060200260200160405190810160405280939291908181526020018383602002808284378201915050505050509192919290505050610365565b005b34801561013057600080fd5b5061014f60048036038101908080359060200190929190505050610592565b604051808273ffffffffffffffffffffffffffffffffffffffff1673ffffffffffffffffffffffffffffffffffffffff16815260200191505060405180910390f35b34801561019d57600080fd5b506101f5600480360381019080803590602001908201803590602001908080602002602001604051908101604052809392919081815260200183836020028082843782019150505050505091929192905050506105d0565b005b34801561020357600080fd5b50610238600480360381019080803573ffffffffffffffffffffffffffffffffffffffff169060200190929190505050610723565b604051808215151515815260200191505060405180910390f35b34801561025e57600080fd5b50610267610824565b6040518080602001828103825283818151815260200191508051906020019060200280838360005b838110156102aa57808201518184015260208101905061028f565b505050509050019250505060405180910390f35b3480156102ca57600080fd5b506102d36108b2565b604051808273ffffffffffffffffffffffffffffffffffffffff1673ffffffffffffffffffffffffffffffffffffffff16815260200191505060405180910390f35b34801561032157600080fd5b50610356600480360381019080803573ffffffffffffffffffffffffffffffffffffffff1690602001909291905050506108d7565b005b6000600180549050905090565b6000806000809054906101000a900473ffffffffffffffffffffffffffffffffffffffff1673ffffffffffffffffffffffffffffffffffffffff163373ffffffffffffffffffffffffffffffffffffffff161415156103c357600080fd5b600091505b825182101561058d57600090505b6001805490508110156105805782828151811015156103f157fe5b9060200190602002015173ffffffffffffffffffffffffffffffffffffffff1660018281548110151561042057fe5b9060005260206000200160009054906101000a900473ffffffffffffffffffffffffffffffffffffffff1673ffffffffffffffffffffffffffffffffffffffff1614156105735760018080805490500381548110151561047c57fe5b9060005260206000200160009054906101000a900473ffffffffffffffffffffffffffffffffffffffff166001828154811015156104b657fe5b9060005260206000200160006101000a81548173ffffffffffffffffffffffffffffffffffffffff021916908373ffffffffffffffffffffffffffffffffffffffff16021790555060018054809190600190036105139190610a2c565b50828281518110151561052257fe5b9060200190602002015173ffffffffffffffffffffffffffffffffffffffff167f631ff1c4e1a02c54b480a34b810e03bcee61fe38efcb243930a7f820914923e260405160405180910390a2610580565b80806001019150506103d6565b81806001019250506103c8565b505050565b6001818154811015156105a157fe5b906000526020600020016000915054906101000a900473ffffffffffffffffffffffffffffffffffffffff1681565b60008060009054906101000a900473ffffffffffffffffffffffffffffffffffffffff1673ffffffffffffffffffffffffffffffffffffffff163373ffffffffffffffffffffffffffffffffffffffff1614151561062d57600080fd5b600090505b815181101561071f576001828281518110151561064b57fe5b9060200190602002015190806001815401808255809150509060018203906000526020600020016000909192909190916101000a81548173ffffffffffffffffffffffffffffffffffffffff021916908373ffffffffffffffffffffffffffffffffffffffff1602179055505081818151811015156106c657fe5b9060200190602002015173ffffffffffffffffffffffffffffffffffffffff167f1c4e23de8d72c94b22992bd4d7b6786b215ba876af214ff63e6a0ca38fc97af460405160405180910390a28080600101915050610632565b5050565b6000806000809054906101000a900473ffffffffffffffffffffffffffffffffffffffff1673ffffffffffffffffffffffffffffffffffffffff168373ffffffffffffffffffffffffffffffffffffffff161415610784576001915061081e565b600090505b600180549050811015610819578273ffffffffffffffffffffffffffffffffffffffff166001828154811015156107bc57fe5b9060005260206000200160009054906101000a900473ffffffffffffffffffffffffffffffffffffffff1673ffffffffffffffffffffffffffffffffffffffff16141561080c576001915061081e565b8080600101915050610789565b600091505b50919050565b606060018054806020026020016040519081016040528092919081815260200182805480156108a857602002820191906000526020600020905b8160009054906101000a900473ffffffffffffffffffffffffffffffffffffffff1673ffffffffffffffffffffffffffffffffffffffff168152602001906001019080831161085e575b5050505050905090565b6000809054906101000a900473ffffffffffffffffffffffffffffffffffffffff1681565b6000809054906101000a900473ffffffffffffffffffffffffffffffffffffffff1673ffffffffffffffffffffffffffffffffffffffff163373ffffffffffffffffffffffffffffffffffffffff1614151561093257600080fd5b600073ffffffffffffffffffffffffffffffffffffffff168173ffffffffffffffffffffffffffffffffffffffff161415151561096e57600080fd5b8073ffffffffffffffffffffffffffffffffffffffff166000809054906101000a900473ffffffffffffffffffffffffffffffffffffffff1673ffffffffffffffffffffffffffffffffffffffff167f8be0079c531659141344cd1fd0a4f28419497f9722a3daafe3b4186f6b6457e060405160405180910390a3806000806101000a81548173ffffffffffffffffffffffffffffffffffffffff021916908373ffffffffffffffffffffffffffffffffffffffff16021790555050565b815481835581811115610a5357818360005260206000209182019101610a529190610a58565b5b505050565b610a7a91905b80821115610a76576000816000905550600101610a5e565b5090565b905600a165627a7a7230582001c30244ab556a78009f7e999dff6455f17217aaf941f3f40fd22605bd6464fd0029",
  "source": "pragma solidity 0.4.24;\nimport './zeppelin/ownership/Ownable.sol';\n\n/**\n* @title GroupAdmin\n* @dev The contract allows multiple addresses to perform as admin.\n*/\ncontract GroupAdmin is Ownable {\n    event AdminGranted(address indexed grantee);\n    event AdminRevoked(address indexed grantee);\n    address[] public admins;\n\n    modifier onlyAdmin() {\n        require(isAdmin(msg.sender), 'must be admin');\n        _;\n    }\n\n    /**\n    * @dev Grants admin right to given addresses.\n    * @param newAdmins An array of addresses\n    */\n    function grant(address[] newAdmins) public onlyOwner{\n        for(uint i = 0; i < newAdmins.length; i++){\n            admins.push(newAdmins[i]);\n            emit AdminGranted(newAdmins[i]);\n        }\n    }\n\n    /**\n    * @dev Revoke admin right from given addresses.\n    * @param oldAdmins An array of addresses\n    */\n    function revoke(address[] oldAdmins) public onlyOwner{\n        for(uint oldIdx = 0; oldIdx < oldAdmins.length; oldIdx++){\n            for (uint idx = 0; idx < admins.length; idx++) {\n                if (admins[idx] == oldAdmins[oldIdx]) {\n                    admins[idx] = admins[admins.length - 1];\n                    admins.length--;\n                    emit AdminRevoked(oldAdmins[oldIdx]);\n                    break;\n                }\n            }\n        }\n    }\n\n    /**\n    * @dev Returns admin addresses\n    * @return Admin addresses\n    */\n    function getAdmins() public view returns(address[]){\n        // todo: include owner;\n        return admins;\n    }\n\n    /**\n    * @dev Returns number of admings.\n    * @return Number of admings.\n    */\n    function numOfAdmins() public view returns(uint){\n        return admins.length;\n    }\n\n    /**\n    * @dev Returns if the given address is admin or not.\n    * @param admin An address.\n    * @return True if the given address is admin.\n    */\n    function isAdmin(address admin) public view returns(bool){\n        if (admin == owner) return true;\n\n        for (uint i = 0; i<admins.length; i++){\n            if (admins[i] == admin){\n                return true;\n            }\n        }\n        return false;\n    }\n}\n",
  "sourcePath": "/Users/jefflau/Projects/kickback/contracts/contracts/GroupAdmin.sol",
  "compiler": {
    "name": "solc",
    "version": "0.4.24+commit.e67f0147.Emscripten.clang"
  },
  "schemaVersion": "3.0.0-beta.0",
  "updatedAt": "2018-09-28T14:21:09.830Z"
}